:100000000A308A00122A00000A108A100A11820798
:1000100028340C34013406340A108A100A1182077D
:100020003134323433344134343435343634423478
:1000300037343834393443342A3430342334443474
:10004000C2346537F632EE34E4370000C634EA30A5
:10005000A0326C1053282E172E0053283A10251763
:10006000313300005328A0326E3AF2322018A03CFF
:10007000A01C390053282033693561326F1DA0124E
:10008000AE186600D020D529410059308400831372
:100090000008031959280130F800F701F70B4E2822
:1000A000F80B4D284A30F700F70B54285728800BDF
:1000B0004B2808000830F80000008711A011200824
:1000C0008316870000008312E60D0712031C6E28BA
:1000D0002016200883168700722883122012200819
:1000E0008316870000008312A0152008831687005E
:1000F0008312871D7928F80B5C2800008711A01156
:10010000200883168700000083122016200883161B
:100110008700000000008312A015200883168700C6
:100120008312871D9128F8010000071A781487119F
:10013000A0112008831687008312071220122008BE
:1001400083168700831208006408003A0319AC285C
:10015000013A0319CC28ED28630EF700F030F705BB
:1001600077082504E500E6005A200000630EF7003A
:10017000F030F705770804382504E500E6005A203A
:10018000C128630EF700F030F7057708FB39250426
:10019000E500E6005A20ED28630EF700F030F70581
:1001A000770801382504E500E6005A200000630EB8
:1001B000F700F030F7057708013804382504E5002A
:1001C000E6005A20E328630EF700F030F7057708C1
:1001D00001382504E500E6005A2008002016200812
:1001E0008316870000008312A0152008831687005D
:1001F00000008312071220122008831687000000D7
:1002000083128711A011200883168700831221080A
:10021000E6005A20600EE2000F30E2056208E300BB
:100220006108E400A42060080F39E200E3006108DF
:10023000E400A42020122008831687000000831207
:10024000A0152008831687008312871D252900002A
:100250002929000020162008831687000000831239
:1002600008000130E000E101EE200230D900452015
:100270000130A40008004808A1004A08A20049086B
:10028000A3000B138B138B1B42293230D90045205E
:10029000201620088316870000008312A01520086E
:1002A000831687000000831207122012200883168D
:1002B0008700000083128711A01120088316870091
:1002C00083122108E6005A20E301E401A4200F3044
:1002D000D90045200130CB004B08033C031C792991
:1002E0000330E300E401A4200530D9004520CB0A07
:1002F0006C290230E300E401A4200530D900452038
:10030000201220088316870000008312A015200801
:10031000831687008312871D8B2900008F29000018
:10032000201620088316870000008312CB014B089B
:10033000033C031CA6294B080420CC00E000E1018B
:10034000EE200530D9004520CB0A97293121C03055
:100350008B048A150A12652AC8080319B2290830C5
:10036000A500B329A5018A150A126A2A8A150A125C
:10037000A32A5A0822020318C0292208DB00C22936
:100380005A08DB005B08013A0319D029033A031924
:10039000D229013A0319D529073A0319D829DB29AB
:1003A000DD01DC294030DD00DC291430DD00DC29F2
:1003B0005430DD00DC29DD01590823020318E3294C
:1003C0002308DC00E5295908DC0001305C025D07E8
:1003D000DE005E088038DF00E000E101EE2008006A
:1003E00058080C3A0319FB29063A0319FD29023A69
:1003F00003190A2A0F2A3121142AA40A24082202E6
:100400000318042A0130A4000130D9002408DA00BE
:10041000B921142A1030E000E101EE20142A580816
:10042000E0000130E100EE2008000B08CB008B1348
:10043000831603178C170C1400000000831203139B
:10044000CB1B8B1703170C087F390319692A031379
:10045000CB0003170D080313CC0003170F08031379
:10046000CD004B08D800F0214C0803178D00031372
:100470004D0803178F0003130B08CE008B13831650
:1004800003178C170C140000000083120313CE1BFB
:100490008B1703170C0D0E0D7F390319692A0313EF
:1004A000CB0003170D080313CC0003170F08031329
:1004B000CD004B08D800F0214C0803178D00031322
:1004C0004D0803178F008D0A03198F0A0313152A8D
:1004D000031703130800CE01A70A2708213C0318BD
:1004E000CB2A2A08FC3E03188E2A043ED22AEF307B
:1004F00083168600831286008E2ADF3083168600DC
:10050000831286008E2ABF308316860083128600EF
:100510008E2A7F308316860083128600281C9A2A32
:1005200006080F390F3C031D992A28102908CE0010
:10053000A901CA2A06080F390F3C0319C52A060863
:100540000139031DA52ACF01B92A06080239031D66
:10055000AC2A0130CF00B92A06080439031DB32A9A
:100560000230CF00B92A06080839031DB92A033022
:10057000CF004F0DF700F70DFC30F70577082A077D
:100580000C20F800A9002814CA2AAA0A2A08043C48
:100590000319AA01A701FF308316860083124E08B3
:1005A000F80008000A108A140A118207772A7D2AA7
:1005B000832A892ACB01CD01CC016B227808CB009C
:1005C000CB08031DF82ACC0A0319CD0A4D084E3C6E
:1005D000031CF82A031DF02A4C081F3C031CF82AB0
:1005E0000330F700F70BF22A6B227808CB00E02AE1
:1005F0004B08F8000800580803196B2BE0005C0852
:1006000003196B2BE00703180C2B7F30E002031C4F
:100610006B2B03196B2B102B8130E00703186B2B0E
:100620006008F700F801F901FA015908E400E4173D
:100630005A08E3005B08E2001830E000E101621CA8
:10064000392B5F08FA07031C2B2BF90A031D2B2BF0
:10065000F80A0319E1175E08F907031C322BF80AA0
:100660000319E1175D08DA00DA175A08F8070318CA
:10067000E117E10DF80CF90CFA0CE40CE30CE20CB8
:100680000310E00B1E2B0130F70703186B2BF81B30
:10069000502BE40DFA0DF90DF80DF70303196B2B30
:1006A000E41F612BFA0A031D612BF90A031D612B5C
:1006B000F80A031D612BF80CF90CFA0CF70A031960
:1006C0006B2B5908E1005D08E106E11F692BF81763
:1006D0006F2BF8136F2BF701F801F901FA010800ED
:1006E0008318752B603084008313F701F801F9013A
:1006F000FA01E001E101E201E3015F085E045D044B
:100700005C040319B32B2030E4000310D80DD90D7D
:10071000DA0DDB0DE00DE10DE20DE30D5F08630284
:10072000031D9C2B5E086202031D9C2B5D08610269
:10073000031D9C2B5C086002031CAD2B5C08E002CF
:100740005D08031C5D0FE1025E08031C5E0FE20200
:100750005F08031C5F0FE3020314F70DF80DF90D9A
:10076000FA0DE40B852B60088000840A6108800084
:10077000840A62088000840A630880000800040874
:10078000D0004F08D2000319DE2B4E08DB004D08C5
:10079000DA004C08D9004B08D800DF01DE01203018
:1007A000DD008230DC00FB227A08CE007908CD0023
:1007B0007808CC007708CB00D20BC52B4E08DB00A5
:1007C0004D08DA004C08D9004B08D8005808B63C50
:1007D000D800FA015908DC00D9170310D90CDA0C3B
:1007E000DB0CFA0CF90CF80CF70CD80BED2BDC1F1A
:1007F000042CF709F809F909FA09F70A0319F80AA4
:100800000319F90A0319FA0A7A08CE007908CD000B
:100810007808CC007708CB00CE1F1B2CD003D01655
:10082000CB09CC09CD09CE09CB0A0319CC0A03198F
:10083000CD0A0319CE0A3B30D7009A30D600CA3011
:10084000D500D4010A30D2004F080319D00A83140E
:100850004B30840083134E08DB004D08DA004C084F
:10086000D9004B08D8005708DF005608DE005508AD
:10087000DD005408DC0070237808F708031D532CB2
:100880004F0A52020319532C50080319552C0F39E3
:10089000520203194D2C0318852CD01B852C501B9C
:1008A000552C2030812C2030D005D01E632CD01246
:1008B0004F08031DD0037708D0002D30D800F02159
:1008C0005008F700D0014F085202031D712C770821
:1008D000D0002E30D800F0215008F7002030D0058D
:1008E00000303030D01E812CD0124F08031DD003B1
:1008F0007708D0002D30D800F0215008F700D00143
:100900003030F7077708D800F02183105708DB0054
:100910005608DA005508D9005408D800DF01DE0176
:10092000DD010A30DC0070237A08D7007908D60090
:100930007808D5007708D400D20B272C08000B08C4
:10094000CC008B13831603178C170C1400000000C7
:1009500083120313CC1B8B170318D62C03170C0818
:100960007F390313CC0003170D080313CD000317C1
:100970000F080313CE004C08D800F0214D080317D0
:100980008D0003134E0803178F0003130B08CF00CD
:100990008B13831603178C170C14000000008312AE
:1009A0000313CF1B8B17CB0BD62CF52C03170C0D79
:1009B0000E0D7F390313CC0003170D080313CD0070
:1009C00003170F080313CE004C08D800F0214D0880
:1009D00003178D0003134E0803178F008D0A0319A8
:1009E0008F0A03100313CB0B9F2C0800C80188103B
:1009F0000814950131210130D900DA00B9213230D3
:100A000003178D0000308F00031315220130D90029
:100A10000230DA00B9215330D800F0215030D8002C
:100A2000F0213A30D800F021C5014508233C0319D4
:100A3000DE2EC501DA227808C5004508413C0319BD
:100A40002D2D4508423C03192D2D4508433C031923
:100A50002D2D4508443C031D572D41304502FC3ED9
:100A60000318562D043E022FBA01B901B801833094
:100A7000B7002330C500562DBA01B9011030B800B7
:100A80008330B7002330C500562DBA01B90120309C
:100A9000B8008330B7002330C500562DBA01B90124
:100AA0004030B8008330B7002330C500DD2E450844
:100AB000233C0319DD2E45082A3C0319DD2EC50809
:100AC0000319DD2E4808013C031CDD2E4930480780
:100AD0008400831345088000CC014930CB00D1014C
:100AE000CF010A30D000CE01CD014B084C04031DCC
:100AF0007D2D0030F800F9009A2E5108D10A4B07DD
:100B0000840083134C1883170008D20052082D3C30
:100B1000031D962D0130CF005108D10A4B078400E8
:100B200083134C1883170008D200A32D52082B3CC6
:100B3000031DA32D5108D10A4B07840083134C18C1
:100B400083170008D20052082F3C03188B2E52083E
:100B5000393C031C8B2E5208303C031DCF2D51080D
:100B60004B07840083134C1883170008783C031943
:100B7000C32D51084B07840083134C1883170008BA
:100B8000583C031DCF2D1030D000D10A5108D10A96
:100B90004B07840083134C1883170008D2005008B9
:100BA0000A3C031D222E52082F3C0318212E520806
:100BB000393C031C212ED4010A30D3004E08D60044
:100BC0004D08D500540856068039D800D41FED2DA5
:100BD000D309D409D30A0319D40AD61FF42DD50991
:100BE000D609D50A0319D60A1030D700F701FA0141
:100BF000D40CD30C031C022E5508F7070318FA0A6D
:100C00005608FA07FA0CF70CF90CF80CD70BF82D6C
:100C1000D81F0F2EF809F909F80A0319F90A30301C
:100C200052027807CD007908CE000318CE0A510889
:100C3000D10A4B07840083134C1883170008D20095
:100C4000D32D8B2E5008103C031D8B2E5208603C78
:100C50000318312E52087A3C031C312E5208DF391A
:100C6000322E5208D20052082F3C03183B2E520855
:100C7000393C0318432E5208403C03188B2E52086F
:100C8000463C031C8B2E52082F3C0318602E520842
:100C9000393C031C602E4D0DD3004E0DD400D30DF6
:100CA000D40DD30DD40DD30DD40DF030D305303089
:100CB00052025307CD005408CE000318CE0A752EF9
:100CC0004D0DD3004E0DD400D30DD40DD30DD40D46
:100CD000D30DD40DF030D305413052020A3E5307F4
:100CE000CD005408CE000318CE0A5108D10A4B0794
:100CF000840083134C1883170008D200603C03184B
:100D0000882E52087A3C031C882E5208DF39892E1F
:100D10005208D200332E50080A3C031D962E4F0B6A
:100D2000962ECD09CE09CD0A0319CE0A4D08F8003A
:100D30004E08F9007908CC007808CB008E30F70017
:100D40004C08F8004B08F900FA01CC1FAC2EF8094A
:100D5000F909F90A0319F80AF808031DB92E7908E8
:100D6000F800F9010830F702F808031DB92EF70161
:100D7000C22E0310F81BC02EF90DF80DF703B92E83
:100D8000CC1FF8137A08BA007908B9007808B800BF
:100D90007708B7000430D9000230DA00B921893071
:100DA00084003A08CE003908CD003808CC00370856
:100DB000CB000130CF00BF23C80A152D31210A30E6
:100DC000D90045203A3003178D0000308F00031002
:100DD0000B300313CB009F24893084003A08CE00E7
:100DE0003908CD003808CC003708CB000130CF00DF
:100DF000BF230430CB00FA30D9004520CB0BFB2EAB
:100E0000312108000A148A140A158207342D3C2D5A
:100E1000452D4E2D8E30F7004908F8004808F9009E
:100E2000FA01F808031D1E2F7908F800F9010830AF
:100E3000F702F808031D1E2FF701262F0310F81BD9
:100E4000252FF90DF80DF7031E2FF8138A150A1236
:100E5000EF2A4908D0004D08D006D01F342F0311C7
:100E60000310C91B0314672F4908D0004C08D10098
:100E70004808D1020319422FD01F672F0308013AF7
:100E80008300672F4D08D1004908D10203194E2F66
:100E9000D01F672F0308013A8300672F4E08D10047
:100EA0004A08D10203195A2FD01F672F0308013AAD
:100EB0008300672F4F08D1004B08D1020319662F1A
:100EC000D01F672F0308013A8300672F03108A158C
:100ED0000A123B2B8E30F7004808F7024908F90048
:100EE0004A08F800F917F7080319812F0310F908C9
:100EF000031D7D2FF8080319812FF90CF80CF70B4F
:100F0000762FC91F882FF809F909F80A0319F90A79
:100F10008A150A12762B88100814950131210130A8
:100F2000D900DA00B921423003178D0000308F005C
:100F300003131522C50145082A3C0319A32FDA2201
:0E0F40007808C5009B2F31218A150A12DC2B80
:1010000080308318CD06D201D3014908D1004D08A4
:10101000D10648080319F128D000F7004C0803193D
:10102000FA28D002031996280318172854284D08C7
:10103000D600D6174E08D5004F08D400D3010310B0
:10104000D60CD50CD40CD30CD00B1E28D11F2B28BA
:1010500052140E295210501052164B308400831334
:1010600024295212D11B3E28501C4928D60CD50CDD
:10107000D40CD30CF70A031909294928D61B4C288C
:101080000310D30DD40DD50DD60DF703031909297F
:101090003E285217B62852134908D100D11F5228B2
:1010A000D6170229D61302294C08D000F7004808A9
:1010B000D0024908D600D6174A08D5004B08D400FC
:1010C000D3010310D60CD50CD40CD30CD00B602854
:1010D000D11F6D28D2140E29D2105010D2164F30C5
:1010E000840083132429D212D11B8028501C8B2802
:1010F000D60CD50CD40CD30CF70A031909298B286C
:10110000D61B8E280310D30DD40DD50DD60DF703A5
:10111000031909298028D217B628D2134D08D10007
:10112000D11F9428D6170229D61302294D08D600BC
:10113000D6174E08D5004F08D400D11FA328D613C8
:1011400052150E295211D30150104B3084008313D5
:101150002429D11BCC284908D100501CB628D60C14
:10116000D50CD40CD30CF70A03190929D31FC728AF
:10117000D40A031DC728D50A031DC728D60A031D94
:10118000C728D60CD50CD40CF70A03190929521B11
:101190004B28D21B8D28EB288030D606D61FD428AA
:1011A0000E294D08D100E1284908D100D608031DB9
:1011B000E128D508031DE128D408031DE128F70123
:1011C0000229D61BEB280310D30DD40DD50DD60D57
:1011D000F70BE1280929D11FEF28D6170229D613CA
:1011E00002294C08F7004D08D6004E08D5004F08DC
:1011F000D40002294808F7004908D6004A08D5005B
:101200004B08D4005608F8005508F9005408FA00B5
:101210004329F701F801F901FA014329D301D4095F
:10122000D509D609D309D30A031D1D29D40A031DE4
:101230001D29D50A031D1D29D60A52182A28D2189D
:101240006C285219A228D1280008D407031C2E2983
:10125000D50A031D2E29D60A031950148403000849
:10126000D507031C3629D60A031950148403000835
:10127000801B3B29803AD60703185014521A312894
:10128000D21A7328A9288A150A12252B480803198F
:101290000B2AD4004C0803190B2AD402031C55292D
:1012A0007F30D40703180B2A5B298130D402031C3A
:1012B0000B2A03190B2A5408F700F801F901FA0167
:1012C000D3014908D200D2174A08D1004B08D000F8
:1012D0001930D4004F08D00203187E290130D10202
:1012E00003187E29D20203187E29D30203187E290F
:1012F000D30AD20AD10A4F08D007B0294E08D1022A
:10130000031899290130D20203189929D30203182E
:101310009929D30AD20A4E08D1074F08D007031CD7
:10132000B029D10A031DB029D20A031DB029D30A5E
:10133000B0294D088038D2020318AF290130D302FA
:101340000318AF29D30A4D088038D2074E08D107B9
:10135000031C8D29D20A031D8D29D30A8D297A14E5
:10136000D40BB329BE290310D00DD10DD20DD30D4E
:101370000310FA0DF90DF80DD50D6A29551CC62973
:101380000310F80CF90CFA0CD50CC929F703031952
:101390000B2AD51BF2290310D00DD10DD20DD30D80
:1013A0004F08D0020318DE290130D1020318DE29CC
:1013B000D2020318DE29D302031C012A4E08D102EF
:1013C0000318E9290130D2020318E929D302031CCA
:1013D000012A4D088038D2020318F2290130D302C5
:1013E000031C012AFA0A031D012AF90A031D012A16
:1013F000F80A031D012AF70A03190B2AF80CF90C45
:10140000FA0C4908D4004D08D406D41F092AF8174D
:101410000F2AF8130F2AF701F801F901FA018A15CA
:101420000A12532B03081F398300613083168F0083
:1014300090010F08FF308312A0000130A400083093
:10144000A500B401B301B201B101BA01B901B801FB
:10145000B701BC01BB01C001BF01BE01BD01C40198
:10146000C301C201C101C701C601831603170908E0
:10147000C039890003131F129F1200300317880020
:10148000831287018801890183130313A601A70131
:101490002810A901AA01AB01AC01FF308316950009
:1014A0008113013085000030860087008312A00080
:1014B000831688008312870188014E30C8001030DF
:1014C000C9000230CA008A113B298A150130C800C0
:1014D0008A11AC298A158A1131218A15F930B50093
:1014E0000130B6003602F800780DF700F70DF70D61
:1014F000F830F70577080538920035088316920012
:1015000083122011200883168700831207110C30E4
:10151000970083169B019C0101309D000317090869
:10152000C039890003131F129F120130031788006E
:10153000831203131F179F1783169F1783121F14FD
:1015400095018A11B6298A150130D900DA008A116D
:10155000B9218A15203003178D0000308F008A11C1
:10156000031315228A150130D9000230DA008A11DE
:10157000B9218A15263003178D0000308F008A119B
:10158000031315228A150430C800FA30D9008A11D5
:1015900045208A15C80BC52A8A11F6248A158A1196
:1015A00031218A15081088140030F8001F08C3394B
:1015B00078049F002130F700F70BDC2A9F149F1856
:1015C000DF2A1E08F90083161E08F8007908FA00C1
:1015D0001E088312C8007908C9008A110A2F8A15CB
:1015E0007A08B4007908B3007808B2007708B1002F
:1015F0003408DB003308DA003208D9003108D8009B
:101600005A30DF00F530DE007930DD007D30DC005F
:101610008A11FB228A157A08C4007908C300780869
:10162000C2007708C10083144408CB004308CA00F5
:101630004208C9004108C8003A08CF003908CE0066
:101640003808CD003708CC0000287A08C000790897
:10165000BF007808BE007708BD004008CB003F08F7
:10166000CA003E08C9003D08C800CF01CE01CD0127
:10167000CC018A11292F8A15031C422BC001BF01FE
:10168000BE01BD014008CB003F08CA003E08C900AA
:101690003D08C8005A30CF00F530CE007930CD007B
:1016A0007D30CC0046297A08CB007908CA0078083A
:1016B000C9007708C8004B08DB004A08DA0049086F
:1016C000D9004808D800DF01DE014830DD00843051
:1016D000DC008A11FB228A157A08CB007908CA003F
:1016E0007808C9007708C8008A116A2F8A15790816
:1016F000BC007808BB003C08033C0318832B033074
:10170000BC00FF30BB00BC08031D8C2B3B08093C10
:10171000031C8C2BBC01BB013C08F9003B08F80002
:10172000F90CF80CF90CF80CF90C78089500F90C88
:10173000790C3039F7001708CF39770497008A11F0
:10174000DA228A157808C5000130D900DA008A113A
:10175000B9218A155030D8008A11F0218A155630E7
:10176000D8008A11F0218A153A30D8008A11F02168
:101770008A15893084004408CE004308CD00420811
:10178000CC004108CB000130CF008A11BF238A155D
:101790002030D8008A11F0218A154508233A031910
:1017A000D52B093A0319D92BDC2B8A11F6248A157B
:1017B000DC2B8A118B2F8A150130D9000230DA0018
:1017C0008A11B9218A152D3003178D0000308F0042
:1017D000031004300313CB008A119F248A1589302B
:1017E00084003A08CE003908CD003808CC0037080C
:1017F000CB000130CF008A11BF238A156430D90095
:0A1800008A1145208A15D22A6300E0
:04400E00E42FFF3F5D
:00000001FF
;PIC16F887
;CRC=5785  CREATED="28-mar.-21 14:59"
